:10940A00496C6C6567616C2041444320706F7274CB
:10941A003A20000A00496C6C6567616C204441433C
:08942A0020706F72743A2000FB
:108D0D00EFB40A0F90A0487486F090A0587401F04B
:108D1D00C29022EFB4040F90A04A7486F090A05A2E
:108D2D007401F0C292227F571292717F521292718A
:108D3D007F4F1292717F4E1292717F471292717F07
:108D4D00301292717F311292717F0A1292717F0DE2
:048D5D0012927122DB
:1088FB00EFB4091790A0497486F090A0597401F059
:10890B0090A0497406F090A0598019EFB403199008
:10891B00A04B7486F090A05B7401F090A04B740692
:10892B00F090A05B7420F0227F571292717F52124D
:10893B0092717F4F1292717F4E1292717F471292FA
:10894B00717F301292717F321292717F0A12927183
:06895B007F0D1292712253
:108D6100EFB4080F90A04C7486F090A05C7401F0F1
:108D7100C29422EFB4020F90A04E7486F090A05ED0
:108D81007401F0C296227F571292717F5212927132
:108D91007F4F1292717F4E1292717F471292717FB3
:108DA100301292717F331292717F0A1292717F0D8C
:048DB1001292712287
:10896100EFB4071790A04D7486F090A05D7401F0EC
:1089710090A04D7406F090A05D8019EFB40119909C
:10898100A04F7486F090A05F7401F090A04F740620
:10899100F090A05F7420F0227F571292717F5212E3
:1089A10092717F4F1292717F4E1292717F47129294
:1089B100717F301292717F341292717F0A1292711B
:0689C1007F0D12927122ED
:108DB500EFB4050F90A0697486F090A0797401F066
:108DC500C2B122EFB41B0F90A0647486F090A0741A
:108DD5007401F0C2A4227F571292717F52129271D0
:108DE5007F4F1292717F4E1292717F471292717F5F
:108DF500301292717F351292717F0A1292717F0D36
:048E05001292712232
:1089C700EFB4061790A0687486F090A0787401F051
:1089D70090A0687406F090A0788019EFB41A1990E7
:1089E700A0657486F090A0757401F090A065740678
:1089F700F090A0757420F0227F571292717F521267
:108A070092717F4F1292717F4E1292717F4712922D
:108A1700717F301292717F361292717F0A129271B2
:068A27007F0D1292712286
:01000A0022D3
:0100220022BB
:01007200226B
:0198A00022A5
:0198A10022A4
:1090D500EFB40B0D90A04774A0F090A0577410F05A
:1090E500227F571292717F521292717F4F129271A5
:1090F5007F4E1292717F471292717F301292717F6B
:0F910500361292717F0A1292717F0D12927122AF
:10911400EFB40C0D90A0467406F090A0567410F0B5
:10912400227F571292717F521292717F4F12927165
:109134007F4E1292717F471292717F301292717F2B
:0F914400361292717F0A1292717F0D1292712270
:108B5300EFB40B0B90A04774A0F090A057801CEFCC
:108B6300B41C0B90A06374A0F090A073800DEFB4BD
:108B7300160D90A06B74A0F090A07B7410F0227F70
:108B8300571292717F521292717F4F1292717F4EE0
:108B93001292717F471292717F301292717F361257
:0D8BA30092717F0A1292717F0D1292712261
:108BB000EFB40C0B90A0467406F090A056801CEF0A
:108BC000B41D0B90A0627406F090A072800DEFB4FB
:108BD000170D90A06A7406F090A07A7410F0227FAE
:108BE000571292717F521292717F4F1292717F4E83
:108BF0001292717F471292717F301292717F3612FA
:0D8C000092717F0A1292717F0D1292712203
:05694F00900249EFF089
:10695400A3741EF0BF120C90A0407408F090A050D5
:10696400026A40900249E0FFB4100C90A0427408FF
:10697400F090A052026A40EFB40D0C90A045740848
:10698400F090A055026A40EFB4110C90A041740835
:10699400F090A051026A40EFB40F0C90A043740829
:1069A400F090A053026A40EFB40E0C90A044740817
:1069B400F090A054026A40EFB40C0B90A046740807
:1069C400F090A0568076EFB40B0B90A0477408F0BB
:1069D40090A0578067EFB40A0B90A0487408F09019
:1069E400A0588058EFB4090B90A0497408F090A007
:1069F400598049EFB4040B90A04A7408F090A05A4F
:106A0400803AEFB4030B90A04B7408F090A05B8025
:106A14002BEFB4020B90A04E7408F090A05E801C83
:106A2400EFB4060B90A0687408F090A078800DEF86
:106A3400B4050E90A0697408F090A0797480F08079
:106A44001E7BFF7A94790A127F0B900249E0FFE4DF
:106A5400FCFDFE126E1F7BFF7A94791D127F0B756D
:106A6400A98190024A741EF090024AE0FF14F0EFEC
:106A740070F6E4F5CE90024BE5B9F0900249E0FFE0
:106A840064126009EF64106004EFB40D0990024BC6
:106A9400E04480F0807E900249E0FF64116009EFD9
:106AA400640F6004EFB40E0990024BE04440F080A0
:106AB40063900249E0FDB40C0990024BE04420F0DD
:106AC4008052ED640B6026900249E0FF640A601D69
:106AD400EF64096018EF64046013EF6403600EEF61
:106AE40064026009EF64066004EFB4050990024B88
:106AF400E04410F0801E7BFF7A94790A127F0B9099
:106B04000249E0FFE4FCFDFE126E1F7BFF7A9479DC
:0A6B14001D127F0B90024BE0F5B953
:016B1E002254
:108EAB00EFB4180B90A0677408F090A077800DEFCB
:108EBB00B4160D90A06B7408F090A07B7480F02218
:108ECB007F571292717F521292717F4F1292717F64
:108EDB004E1292717F471292717F301292717F31D5
:0E8EEB001292717F0A1292717F0D1292712203
:10915300EFB4190D90A0667408F090A0767480F0B7
:10916300227F571292717F521292717F4F12927126
:109173007F4E1292717F471292717F301292717FEC
:0F918300311292717F0A1292717F0D1292712236
:10919200EFB41A0D90A0657408F090A0757480F079
:1091A200227F571292717F521292717F4F129271E7
:1091B2007F4E1292717F471292717F301292717FAD
:0F91C200311292717F0A1292717F0D12927122F7
:1091D100EFB41B0D90A0647408F090A0747480F03B
:1091E100227F571292717F521292717F4F129271A8
:1091F1007F4E1292717F471292717F301292717F6E
:0F920100311292717F0A1292717F0D12927122B7
:10921000EFB41C0D90A0637408F090A0737480F0FC
:10922000227F571292717F521292717F4F12927168
:109230007F4E1292717F471292717F301292717F2E
:0F924000311292717F0A1292717F0D1292712278
:10658100EFB4120C90A0407486F090A050026736D0
:10659100EFB4110C90A0417486F090A051026736BF
:1065A100EFB4100C90A0427486F090A052026736AE
:1065B100EFB40F0C90A0437486F090A0530267369D
:1065C100EFB40E0C90A0447486F090A0540267368C
:1065D100EFB40D0C90A0457486F090A0550267367B
:1065E100EFB40C0C90A0467486F090A0560267366A
:1065F100EFB40B0C90A0477486F090A05702673659
:10660100EFB40A0C90A0487486F090A05802673647
:10661100EFB4090C90A0497486F090A05902673636
:10662100EFB4040C90A04A7486F090A05A02673629
:10663100EFB4030C90A04B7486F090A05B02673618
:10664100EFB4080C90A04C7486F090A05C02673601
:10665100EFB4070C90A04D7486F090A05D026736F0
:10666100EFB4020C90A04E7486F090A05E026736E3
:10667100EFB4010C90A04F7486F090A05F026736D2
:10668100EFB41F0C90A0607486F090A07002673682
:10669100EFB41E0C90A0617486F090A07102673671
:1066A100EFB41D0C90A0627486F090A07202673660
:1066B100EFB41C0B90A0637486F090A0738076EF0A
:1066C100B41B0B90A0647486F090A0748067EFB443
:1066D1001A0B90A0657486F090A0758058EFB419DC
:1066E1000B90A0667486F090A0768049EFB4180BE9
:1066F10090A0677486F090A077803AEFB4060B9073
:10670100A0687486F090A078802BEFB4050B90A060
:10671100697486F090A079801CEFB4170B90A06A81
:106721007486F090A07A800DEFB4160D90A06B7472
:1067310086F090A07B7401F0227F571292717F52F4
:106741001292717F4F1292717F4E1292717F471296
:1067510092717F301292717F311292717F0A12927F
:07676100717F0D12927122FD
:10676800EFB4120C90A0407480F090A05002691D04
:10677800EFB4110C90A0417480F090A05102691DF3
:10678800EFB4100C90A0427480F090A05202691DE2
:10679800EFB40F0C90A0437480F090A05302691DD1
:1067A800EFB40E0C90A0447480F090A05402691DC0
:1067B800EFB40D0C90A0457480F090A05502691DAF
:1067C800EFB40C0C90A0467480F090A05602691D9E
:1067D800EFB40B0C90A0477480F090A05702691D8D
:1067E800EFB40A0C90A0487480F090A05802691D7C
:1067F800EFB4090C90A0497480F090A05902691D6B
:10680800EFB4040C90A04A7480F090A05A02691D5D
:10681800EFB4030C90A04B7480F090A05B02691D4C
:10682800EFB4080C90A04C7480F090A05C02691D35
:10683800EFB4070C90A04D7480F090A05D02691D24
:10684800EFB4020C90A04E7480F090A05E02691D17
:10685800EFB4010C90A04F7480F090A05F02691D06
:10686800EFB41F0C90A0607480F090A07002691DB6
:10687800EFB41E0C90A0617480F090A07102691DA5
:10688800EFB41D0C90A0627480F090A07202691D94
:10689800EFB41C0B90A0637480F090A0738076EF27
:1068A800B41B0B90A0647480F090A0748067EFB460
:1068B8001A0B90A0657480F090A0758058EFB419F9
:1068C8000B90A0667480F090A0768049EFB4180B06
:1068D80090A0677480F090A077803AEFB4060B9090
:1068E800A0687480F090A078802BEFB4050B90A07E
:1068F800697480F090A079801CEFB4170B90A06A9F
:106908007480F090A07A800DEFB4160D90A06B748F
:1069180080F090A07B7401F0227F571292717F5211
:106928001292717F4F1292717F4E1292717F4712AD
:1069380092717F301292717F311292717F0A129296
:07694800717F0D1292712214
:10866300900418741EF0EFB40D0B90A0557420F015
:1086730090A045802BEFB41D0B90A0727420F09056
:10868300A062801CEFB41C0B90A0737420F090A028
:1086930063800DEFB4180E90A0777420F090A0675C
:1086A30074A1F0802D7F571292717F521292717FC5
:1086B3004F1292717F4E1292717F471292717F30E7
:1086C3001292717F311292717F0A1292717F0D1291
:0786D300927190A097E4F002
:0186DA00227D
:108C0D009001AEEFF0BF010B90A04F7408F090A053
:108C1D005F80209001AEE0FFB41D0B90A062740840
:108C2D00F090A072800DEFB4170D90A06A7408F04B
:108C3D0090A07A7480F0227BFF7A94791F127F0BBB
:108C4D009001AEE0FFE4FCFDFE126E1F7BFF7A94F7
:068C5D00791D127F0B22BD
:107C9F004765742063757272656E742074696D65C3
:107CAF00206661696C2E20596F752073686F756C33
:107CBF0064207475726E206F6E2054696D65723515
:107CCF0020666972737420627920747970696E67A7
:107CDF002060636C6F636B27202E0A000A004765D4
:107CEF00742073797374656D2075702074696D6578
:107CFF00206661696C2E20596F752073686F756CE3
:107D0F0064207475726E206F6E2054696D657235C4
:107D1F0020666972737420627920747970696E6756
:107D2F002060636C6F636B27202E0A005379737486
:107D3F00656D2055702054696D653A2000204461AF
:107D4F0079732C200020486F7572732C2000204D02
:107D5F00696E757465732C2000205365636F6E64B4
:037D6F00730A0094
:1095EF00E4FFE4FEE4FD0DEDB410FB0EEEB464F405
:0595FF000FEFB464ED64
:019604002243
:10966C00E4FEEEC39F500AE4FD0DEDB41EFB0E802C
:01967C00F1FC
:01967D0022CA
:10967E00E4FEEEC39F500AE4FD0DEDB464FB0E80D4
:01968E00F1EA
:01968F0022B8
:0A976100E4FEEEC39F50030E80F8F3
:01976B0022DB
:10969000E4FDFCC3ED9FEC9E50070DBD00010C8066
:0196A000F2D7
:0196A10022A6
:10945800E4FAF9F8900409E0FCA3E0FDA3E0FEA318
:10946800E0FF125D67E47B0AFAF9F8125D67EB2406
:0294780030FFC3
:03947A0002006687
:10924F00E4FAF9F890024EE0FCA3E0FDA3E0FEA3E0
:10925F00E0FF125D67E47B0AFAF9F8125D67EB2411
:02926F0030FFCE
:109271009002B7EFF090037DE0600990037EE0B4C7
:0D928100010A80009002B7E0FF1200662293
:0C006600C2AC8F993099FDC299D2AC2237
:0B8A2D009003FFEBF0A3EAF0A3E9F0D8
:108A3800E4A3F0A3F09003FFE0FBA3E0FAA3E0F9BE
:108A4800A3E0FEA3E0F5828E83125BFCFF603BEFA0
:108A5800B40A0C7F0A12947A7F0D129271801B90CF
:108A680003FFE0FBA3E0FAA3E0F9A3E0FEA3E0F52F
:108A7800828E83125BFCFF12947A900403E004F068
:0A8A880070B3900402E004F080AB2C
:018A920022C1
:0B7F0B00900256EBF0A3EAF0A3E9F0AF
:107F1600E4A3F0A3F090037DE0605B90037EE06451
:107F2600016003027FCE900256E0FBA3E0FAA3E0D5
:107F3600F9A3E0FEA3E0F5828E83125BFCFF7003DB
:107F4600027FCEEFB40A047F0A8018900256E0FB47
:107F5600A3E0FAA3E0F9A3E0FEA3E0F5828E831284
:107F66005BFCFF12927190025AE004F070B8900226
:107F760059E004F080B0900256E0FBA3E0FAA3E0DB
:107F8600F9A3E0FEA3E0F5828E83125BFCFF603866
:107F9600EFB40A097F0A1292717F0D80189002567B
:107FA600E0FBA3E0FAA3E0F9A3E0FEA3E0F5828EEE
:107FB60083125BFCFF12927190025AE004F070B6D5
:087FC600900259E004F080AEC6
:017FCE002290
:087ADF00900249EEF0A3EFF064
:107AE7009002B1E4F0A304F090024BEEF0A3EFF0A4
:107AF700C39410EE940050057F3012927190024BA0
:107B0700E0FEA3E0FF4E605C7E00EF540FFF9002A3
:107B1700B5EEF0A3EFF0C3940A748094805005E0AB
:107B2700243080069002B6E02437F09002B5E034A6
:107B370000F09002B5A3E0FF9002B1E475F00112E6
:107B47005CC6FC744D25F0F58274023CF583EFF0BA
:107B570090024BE0C4F854F0C868F0A3E0C4540F97
:107B670048F080999002B2E024FFFE9002B1E03421
:107B7700FF9002B3F0A3CEF09002B3E0FEA3E0FFC4
:107B8700D39400EE64809480401F744D2FF5827467
:107B9700023EF583E0FF1292719002B4E024FFF0F9
:107BA7009002B3E034FFF080CF900249E07002A367
:087BB700E070057F30129271AD
:017BBF0022A3
:10749B00900409125E3E7F007EE17DF57C05900431
:1074AB0009E0F8A3E0F9A3E0FAA3E0FBC3125E073F
:1074BB0040057F5812947A7F807E967D987C009051
:1074CB000409E0F8A3E0F9A3E0FAA3E0FBC3125E22
:1074DB0007400B7B807A967998780012945C7F40FA
:1074EB007E427D0F7C00900409E0F8A3E0F9A3E055
:1074FB00FAA3E0FBC3125E07400B7B407A42790F85
:10750B00780012945C7FA07E867D017C009004093C
:10751B00E0F8A3E0F9A3E0FAA3E0FBC3125E074097
:10752B000B7BA07A867901780012945CE47F107E45
:10753B0027FDFC900409E0F8A3E0F9A3E0FAA3E02F
:10754B00FBC3125E074008E47B107A2712945AE4BF
:10755B007FE87E03FDFC900409E0F8A3E0F9A3E0CB
:10756B00FAA3E0FBC3125E074008E47BE87A031240
:10757B00945AE47F64FEFDFC900409E0F8A3E0F963
:10758B00A3E0FAA3E0FBC3125E0740057B641294F1
:10759B0058E47F0AFEFDFC900409E0F8A3E0F9A390
:1075AB00E0FAA3E0FBC3125E0740057B0A12945876
:1075BB00E47B0AFAF9F8900409E0FCA3E0FDA3E0F0
:0E75CB00FEA3E0FF125D67EB2430FF02947A0E
:106E06007B807A51790178009002D5E0FCA3E0FD01
:096E1600A3E0FEA3E0FF125D679A
:106E1F0090024E125E3E7F007EE17DF57C05900272
:106E2F004EE0F8A3E0F9A3E0FAA3E0FBC3125E077C
:106E3F0040057F581292717F807E967D987C0090DE
:106E4F00024EE0F8A3E0F9A3E0FAA3E0FBC3125E61
:106E5F0007400B7B807A96799878001292537F4087
:106E6F007E427D0F7C0090024EE0F8A3E0F9A3E094
:106E7F00FAA3E0FBC3125E07400B7B407A42790F07
:106E8F0078001292537FA07E867D017C0090024E87
:106E9F00E0F8A3E0F9A3E0FAA3E0FBC3125E07401A
:106EAF000B7BA07A8679017800129253E47F107ED3
:106EBF0027FDFC90024EE0F8A3E0F9A3E0FAA3E06F
:106ECF00FBC3125E074008E47B107A27129251E44D
:106EDF007FE87E03FDFC90024EE0F8A3E0F9A3E00B
:106EEF00FAA3E0FBC3125E074008E47BE87A0312C3
:106EFF009251E47F64FEFDFC90024EE0F8A3E0F9AE
:106F0F00A3E0FAA3E0FBC3125E0740057B64129275
:106F1F004FE47F0AFEFDFC90024EE0F8A3E0F9A3D8
:106F2F00E0FAA3E0FBC3125E0740057B0A12924F03
:106F3F00E47B0AFAF9F890024EE0FCA3E0FDA3E02F
:0E6F4F00FEA3E0FF125D67EB2430FF0292719B
:10900F00900249125E3E900249E0FCA3E0FDA3E00E
:10901F00FEA3E0FFEC335014900249A3A3A3E01288
:10902F005DF9900249125E3E7F2D80027F2B1292D6
:10903F0071900249E0FCA3E0FDA3E0FEA3E0FF0274
:02904F006E1F92
:10882A0090040D125E3EE47F0AFEFDFC90040DE00A
:10883A00F8A3E0F9A3E0FAA3E0FBC3125E07500530
:10884A007F30129271E47F0AFEFDFC90040DE0F87D
:10885A00A3E0F9A3E0FAA3E0FBC3125E07400CE42D
:10886A007B0AFAF9F890040D129256E47B0AFAF997
:10887A00F890040DE0FCA3E0FDA3E0FEA3E0FF12E4
:09888A005D67EB2430FF029271DE
:107354009001AE125E3EE4FFFEFDFC9001AEE0F84B
:10736400A3E0F9A3E0FAA3E0FBC3125E0770057F74
:10737400300274977F407E427D0F7C009001AEE026
:10738400F8A3E0F9A3E0FAA3E0FBC3125E074020F0
:107394007B407A42790F78009001AEE0FCA3E0FDD7
:1073A400A3E0FEA3E0FF125D67EF2430FF129271A9
:1073B4007FA07E867D017C009001AEE0F8A3E0F919
:1073C400A3E0FAA3E0FBC3125E0740207BA07A8609
:1073D400790178009001AEE0FCA3E0FDA3E0FEA3F8
:1073E400E0FF125D67EF2430FF129271E47F107E9C
:1073F40027FDFC9001AEE0F8A3E0F9A3E0FAA3E0D6
:10740400FBC3125E07400DE47B107A27F9F8900164
:10741400AE129256E47FE87E03FDFC9001AEE0F8E4
:10742400A3E0F9A3E0FAA3E0FBC3125E074027E45C
:107434007BE87A03F9F89001AEE0FCA3E0FDA3E059
:10744400FEA3E0FF125D67E47B0AFAF9F8125D67B8
:10745400EB2430FF80027F301292717F2E129271E2
:10746400E47B64FAF9F89001AE129256E47B0AFACE
:10747400F9F89001AE129256E47B0AFAF9F89001F9
:10748400AEE0FCA3E0FDA3E0FEA3E0FF125D67EB2A
:077494002430FF1292712267
:10955A00C297C296C285C2817F6412967ED297D282
:0A956A0096D285D28112967E80E62B
:0997CA00C297C296C285C2812239
:0997D300D297D296D285D28122F0
:108EF90090A0527401F0A3F0A3F0E580541C131361
:108F0900543F9002FFF0E02430FF12927190A0527A
:108F19007402F0A3F0A3F090A028E06009E054E304
:108F2900F090A038800D90A038E0600AE054E3F09A
:078F390090A028741CF02237
:0F9709009002D5E0FCA3E0FDA3E0FEA3E0FF2269
:10790300E4FFFEFDFC9002D5E0F8A3E0F9A3E0FA62
:10791300A3E0FBC3125E0770097BFF7A7C799F02A9
:1079230079F1126E067F3A1292717B807A51790156
:1079330078009002D5E0FCA3E0FDA3E0FEA3E0FF06
:10794300125D67AC00AD01AE02AF03E47B107A0EAB
:10795300F9F8125D6712882A7F3A1292717B807A56
:1079630051790178009002D5E0FCA3E0FDA3E0FE8D
:10797300A3E0FF125D67AC00AD01AE02AF03E47B91
:10798300107A0EF9F8125D67AC00AD01AE02AF03D9
:10799300E47B3CFAF9F8125D6712882A7F3A129267
:1079A300717B807A51790178009002D5E0FCA3E0E5
:1079B300FDA3E0FEA3E0FF125D67AC00AD01AE02E4
:1079C300AF03E47B107A0EF9F8125D67AC00AD01EA
:1079D300AE02AF03E47B3CFAF9F8125D67AC00AD8D
:1079E30001AE02AF0312882A7BFF7A7C79EB127F08
:0279F3000B2265
:1077FE00E4FFFEFDFC9002D5E0F8A3E0F9A3E0FA69
:10780E00A3E0FBC3125E077BFF70077A7C79ED0263
:10781E0078FF7A7D793B127F0B126E067BFF7A7DA5
:10782E00794C127F0B7B807A51790178009002D5CA
:10783E00E0FCA3E0FDA3E0FEA3E0FF125D67AC0059
:10784E00AD01AE02AF03E47B107A0EF9F8125D675C
:10785E00126E1F7BFF7A7D7954127F0B7B807A51DB
:10786E00790178009002D5E0FCA3E0FDA3E0FEA331
:10787E00E0FF125D67AC00AD01AE02AF03E47B101A
:10788E007A0EF9F8125D67AC00AD01AE02AF03E4FB
:10789E007B3CFAF9F8125D67126E1F7BFF7A7D79D9
:1078AE005D127F0B7B807A51790178009002D5E0D2
:1078BE00FCA3E0FDA3E0FEA3E0FF125D67AC00AD0C
:1078CE0001AE02AF03E47B107A0EF9F8125D67ACDD
:1078DE0000AD01AE02AF03E47B3CFAF9F8125D672E
:1078EE00AC00AD01AE02AF03126E1F7BFF7A7D7945
:0578FE0068127F0B225F
:1094C4000A00496E666F726D6174696F6E20426C3A
:1094D4006F636B20284946422920646174613A0A0B
:0194E4000087
:106394004102FE194102CF004102F4004202DB0037
:1063A40000420381000041038B0042039600004237
:1063B4000398000042039A00004203A00000410237
:1063C400FF00410390004102D4004102E100410377
:1063D40085004103860042038300004102C000415E
:1063E4000380004102C3004102DA004102CE0041B1
:1063F400037D0042039100004202BE00004102E21C
:106404000244039C000000004402C8000000004451
:1064140003A800000000440300000000004402E759
:106424000000000041037E014102CD014402D0007E
:106434000000004402D5000000004102DD004102DA
:10644400E00041039500410394004402F000000081
:10645400004102B83C4402F5000000004202E30B94
:10646400B84202BC02004202FA00004402EC0000FE
:10647400000044038C000000006078030400000066
:106484000000000000000000000000000000000008
:1064940000000000000000000000000000000000F8
:1064A40000000000000000000000000000000000E8
:1064B40000000000000000000000000000000000D8
:1064C40000000000000000000000000000000000C8
:1064D40000000000000000000000000000000000B8
:1064E40000000000000000000000000000000000A8
:1064F40000000000004103A200410393004103A7F0
:0A650400004102EB004202E5000036
:108E0900D290C291D294C295D2B1C2B090A05874F6
:108E190001F090A0487486F090A0597401F090A0D8
:108E2900497486F090A05C7401F090A04C7486F0AF
:108E390090A05D7401F090A04D7486F090A069F047
:108E490090A0797401F090A0687486F090A078746D
:038E590001F02203
:1095220090A0677408F090A0777480F090A03074D7
:0C95320020F090A03274E0F0E4F59422E8
:1094320090A06B7408F090A07B7480F0E4F5947FA8
:109442000412967E90A033E4F090A03074E0F0D243
:06945200EA7F0102967E94
:03989700C2EA2200
:108C6300D290D294D2B1C291C295C2B090A058749E
:108C730001F090A0487486F090A0597401F090A080
:108C8300497486F090A05C7401F090A04C7486F057
:108C930090A05D7401F090A04D7486F090A079745B
:108CA30001F090A0697486F090A0787401F090A010
:058CB300687486F02248
:0F97180075C9AA75C95590A000EFF0E4F5C922F4
:10947D0075C9AA75C95590A022E4F0A3EFF090A08C
:10948D00207402F0E4F5C975C9AA75C955A3E0FFAA
:03949D00E4F5C92A
:0194A00022A9
:1085DE007BFF7A9479C4127F0B7BFF7A9479C61253
:1085EE007F0BE49001AEF0A3F09001AEE0FEA3E0AD
:1085FE00FFC39480EE64809480505912947D7E0067
:10860E00127ADF9001AEE0FEA3E0FF7C007D101237
:10861E005C90ED640F4C700B7BFF7A9479C4127FE3
:10862E000B80219001AEE0FEA3E0FF7C007D1012D6
:10863E005C90ED64074C7F2070071292717F208052
:10864E00001292719001AFE004F0709D9001AEE0C7
:04865E0004F080950F
:0186620022F5
:10367B000A00496E76616C69642048616C6C20535A
:10368B00656E736F72207374617475732E20506C3A
:10369B006561736520636865636B2074686520489A
:1036AB00616C6C2073656E736F722E202048616C99
:1036BB005F737461203D2000204E6F206D6F766527
:1036CB002C2073746172742050574D2061676169AF
:1036DB006E2C2050574D20447574793A00434C4F53
:1036EB00534520004F50454E200043555252454EF6
:1036FB00542000447574793A004144433A307800C1
:10370B005461726765743A00546172676574204343
:10371B00757272656E743A2030780052504D3A00D3
:10372B00434D50206C696D69743A2000414443202D
:10373B006C696D69743A20002B2B2B2B2B2B2B2BAD
:10374B002B2B2B2B2B2B2B2B2B2B2B2B2B2B2B33B6
:10375B000A002D2D2D2D2D2D2D2D2D2D2D2D2D2DDE
:10376B002D2D2D2D2D2D2D2D2D2D2D2D2D2D2D2D7E
:10377B002D330A002B2B2B2B2B2B2B2B2B2B2B2BD0
:10378B002B2B2B2B2B2B2B2B2B2B2B320A002D2DBF
:10379B002D2D2D2D2D2D2D2D2D2D2D2D2D2D2D2D4E
:1037AB002D2D2D2D2D2D2D2D2D2D2D2D2D320A0089
:1037BB002B2B2B2B2B2B2B2B2B2B2B2B2B2B2B2B4E
:1037CB002B2B2B2B2B2B2B310A002D2D2D2D2D2D78
:1037DB002D2D2D2D2D2D2D2D2D2D2D2D2D2D2D2D0E
:1037EB002D2D2D2D2D2D2D2D2D310A004E6F2063BE
:1037FB0068616E67650A00436C6F636B204D6F6485
:10380B00652C20656E61626C652054350A00707200
:10381B00696E7420746573742E2E2E2E2E2E2E2E02
:10382B002C202050726573732052455345542074DD
:10383B006F20455849542E0A00424C444320636F75
:10384B006D6D616E642070726F6D70742C20004D05
:10385B0059534F4E2043454E545552592C494E43C4
:10386B002E2C204A616E2D342D323031360A0068F1
:10387B00656C703A2068656C70206D656E750A001A
:10388B00733A2073746172742F73746F700A0072C1
:10389B003A2072657365740A006D3A206D65737317
:1038AB006167650A00773A2043572F4343570A0055
:1038BB006B3A206272616B650A00303A2072657355
:1038CB00746F726520746F2064656661756C74200B
:1038DB0076616C75650A00753A2063757272656E58
:1038EB00742070726F74656374696F6E206F6E2FC6
:1038FB006F66660A006F3A206C6F636B20726F7491
:10390B006F722070726F74656374696F6E206F6E67
:10391B002F6F66660A00783A206F70656E2F636CA6
:10392B006F73652F63757272656E74206C6F6F7039
:10393B000A002B3A20647574792B312F73706565EF
:10394B00642B3230302F63757272656E742B31308D
:10395B006D410A002D3A20647574792D312F7370E7
:10396B006565642D3230302F63757272656E742D00
:10397B0031306D410A00313A206474793D31302C7D
:10398B0020323A6474793D32302C20333A647479A6
:10399B003D33302C20343A6474793D34302C20354F
:1039AB003A6474793D35302C20363A6474793D365F
:1039BB00302C20373A6474793D37302C20383A64F8
:1039CB0074793D38302C20393A6474793D39300A9A
:1039DB0000313A203130303072706D2C323A323047
:1039EB00303072706D2C333A3330303072706D2C46
:1039FB00343A3430303072706D2C353A35303030DB
:103A0B0072706D2C363A3630303072706D2C373A0E
:103A1B003730303072706D2C383A3830303072703D
:103A2B006D2C393A3930303072706D0A00313A20D2
:103A3B003130306D412C2020323A3230306D412CF8
:103A4B002020333A3330306D412C2020343A34303F
:103A5B00306D412C2020353A3530306D412C2020F3
:103A6B00363A3630306D412C2020373A3730306DB6
:103A7B00412C2020383A3830306D412C2020393AF7
:103A8B003930306D410A00413A207072643D307814
:103A9B003130302C423A7072643D30783134302CF6
:103AAB00433A7072643D30783138302C443A70723E
:103ABB00643D30783163302C453A7072643D307818
:103ACB003230302C463A7072643D30783234302CC0
:103ADB002E2E2E2C493A7072643D30783330300ADA
:103AEB0000543A2074657374206D6F746F720A0002
:103AFB00553A2074657374206D6F746F7220555630
:103B0B005720636F6E6E656374696F6E730A006C1A
:103B1B003A206C6973742063757272656E742073CE
:103B2B00657474696E670A00793A20746573742042
:103B3B0068616C6C2073657175656E63650A006EE8
:103B4B003A20746573742068616C6C2073746174B3
:103B5B0075730A00683A2073686F772068616C6C24
:103B6B00207374617475730A005C3A2073776974FF
:103B7B006368206D6F746F72205556572073657193
:103B8B0075656E63650A00703A207072696E7420F9
:103B9B007465737420726573756C740A004D3A20EA
:103BAB0074657374206761746520647269766572DD
:103BBB000A00763A20746573742072656164204143
:103BCB0044430A003D3A206765742073797374652A
:103BDB006D2075702074696D650A005E313A206D39
:103BEB006F746F72207374657020310A005E323A05
:103BFB00206D6F746F72207374657020320A005ED3
:103C0B00333A206D6F746F72207374657020330AB2
:103C1B00005E343A206D6F746F7220737465702080
:103C2B00340A005E353A206D6F746F7220737465C1
:103C3B007020350A005E363A206D6F746F722073F8
:103C4B0074657020360A0070776D3A2050574D20FE
:103C5B00746573740A006461633A204441432074B1
:103C6B006573740A007B7D3A2064656372656173CA
:103C7B00652F696E6372656173652070686173652A
:103C8B0020636F6D70656E736174696F6E20616E0A
:103C9B00676C650A005B5D3A2064656372656173EE
:103CAB00652F696E6372656173652050574D207087
:103CBB006572696F640A003C3E3A20646563726505
:103CCB006173652F696E6372656173652050574D23
:103CDB00206465616474696D650A00544553542012
:103CEB0048414C4C2053656E736F72207365717530
:103CFB00656E63652053540A005445535420484164
:103D0B004C4C2053455155454E4345204D4F444552
:103D1B00203A204F46460A00544553542048414C04
:103D2B004C2053455155454E4345204D4F4445205E
:103D3B003A204F4E2C206D616E75616C2068616C62
:103D4B006C2073657175656E636520636865636B65
:103D5B000A00456E67696E656572696E67204D6F07
:103D6B0064650A0050574D204D6F64652E2E2E2E24
:103D7B002E2E2E2E2C2020507265737320524553FD
:103D8B00455420746F20455849542E0A00412B206E
:103D9B002020200064757479203D20002C20706554
:103DAB0072696F64203D20307800203D20002C206C
:103DBB0066726571203D200020487A0A0044414319
:103DCB00204D6F64652E2E2E2E2E2E2E2E2C202067
:103DDB005573652050312E375F70696E312C205032
:103DEB00322E325F70696E32392C2050332E325F97
:103DFB0070696E32332C20507265737320524553A9
:103E0B00455420746F20455849542E0A005479703C
:103E1B0065206068656C702720746F207365652062
:103E2B0068656C70206C6973742E0A00546573742A
:103E3B0020565220696E20434232323039422E2EA8
:103E4B002E2E2E2E2E2E2C20205072657373205268
:103E5B004553455420746F20455849542E0A004150
:103E6B0044432C2070696E20003B202020205652AA
:103E7B002C2070696E20004144433D0020202020FF
:103E8B0020202056523D003B20647574793D003B49
:103E9B000A0044454641554C540A00636173652042
:103EAB00312E202041302020422B2020432D20205A
:103EBB002050574D2064757479203D200063617349
:103ECB006520322E2020412B2020422D20204330F4
:103EDB0020202050574D2064757479203D200063BD
:103EEB0061736520332E2020412B2020423020206F
:103EFB00432D20202050574D2064757479203D2090
:103F0B00006361736520342E2020412D2020423028
:103F1B002020432B20202050574D2064757479208E
:103F2B003D20006361736520352E2020412D20201C
:103F3B00422B2020433020202050574D2064757495
:103F4B0079203D20006361736520362E202041309F
:103F5B002020422D2020432B20202050574D206421
:103F6B00757479203D200054617267657420437528
:103F7B007272656E743A203730306D4120307800A4
:103F8B005461726765742043757272656E743A2062
:103F9B003830306D41203078005461726765742081
:103FAB0043757272656E743A203930306D41203032
:103FBB00780044757479202B312C20447574793A30
:103FCB0000546172676574202B203230302C2054E2
:103FDB0061726765743A200054617267657420439F
:103FEB00757272656E74202B31306D412C205461CB
:103FFB00726765742043757272656E743A203078FF
:10400B000044757479202D312C20447574793A0055
:10401B00546172676574202D203230302C2054612E
:10402B00726765743A0054617267657420437572E8
:10403B0072656E74202D31306D412C205461726786
:10404B0065742043757272656E743A203078007017
:10405B00686173655F616E676C65202D312C207014
:10406B00686173655F616E676C653A00496E766176
:10407B006C696420636F6D6D616E6420666F722076
:10408B006E6F6E2D70686173652D636F6D70656EED
:10409B00736174696F6E206D6F64650A007068617F
:1040AB0073655F616E676C65202B312C20706861C6
:1040BB0073655F616E676C653A00506572696F641A
:1040CB00202D31362C20506572696F643A307800A0
:1040DB00506572696F64202B31362C2050657269E4
:1040EB006F643A30780050574D5F646561645F745C
:1040FB00696D65202D312C2050574D5F64656164CF
:10410B005F74696D653A30780020287472616E7344
:10411B006974696F6E73290A0050574D5F6465614E
:10412B00645F74696D65202B312C2050574D5F6493
:10413B006561645F74696D653A30780046726571CC
:10414B003A307800506861736520436F6D70656E0F
:10415B00736174696F6E206D6F6465204F46460AFC
:10416B0000506861736520436F6D70656E73617489
:10417B00696F6E206D6F6465204F4E2C20706861E7
:10418B0073655F616E676C65203D20005356505719
:10419B004D206D6F6465204F46460A0053565057AD
:1041AB004D206D6F6465204F4E0A00537461746926
:1041BB00632050574D206D6F6465204F46460A00B3
:1041CB005374617469632050574D206D6F64652083
:1041DB004F4E0A004343570A0043570A0070686169
:1041EB0073655F616E676C653A00456E67696E65F6
:1041FB006572696E67204D6F6465204F46460A00F5
:10420B00456E67696E656572696E67204D6F646593
:10421B00204F4E0A0044454255473A4F46460A0046
:10422B0044454255473A4F4E0A00434C4F534520A5
:10423B004C4F4F502C207461726765745F737065BF
:10424B0065643A200043555252454E54204C4F4F13
:10425B00502C207461726765742063757272656E81
:10426B00743A203078004F50454E204C4F4F502C15
:10427B002044757479203D200054455354204D4FF4
:10428B00544F522055565720636F6E6E6563746999
:10429B006F6E730A0053746F70204D6F746F720AD8
:1042AB000050574D5F44555459203D20300A004172
:1042BB0044435F415F696E7374616E6365203D209B
:1042CB003078002000765F6F7574203D20002056FB
:1042DB002000765F696E20203D200073616D706C4D
:1042EB00655F63757272656E74203D2000206D41B1
:1042FB000A0073616D706C655F63757272656E74C5
:10430B005F305F617667203D200050574D5F44550D
:10431B005459203D203130204D545F6472697665CD
:10432B0028312920413020422B20432D0A00736174
:10433B006D706C655F63757272656E745F315F6112
:10434B007667203D200050574D5F44555459203D12
:10435B00203130204D545F647269766528322920F4
:10436B00412B20422D2043300A0073616D706C6528
:10437B005F63757272656E745F325F617667203D45
:10438B00200050574D5F44555459203D203130206B
:10439B004D545F647269766528332920412B204286
:1043AB003020432D0A0073616D706C655F6375720D
:1043BB0072656E745F335F617667203D20005657E0
:1043CB0020636F6E6E656374696F6E206973204F27
:1043DB004B0A00565720636F6E6E656374696F6E80
:1043EB00206973204E470A00555620636F6E6E6529
:1043FB006374696F6E206973204F4B0A005556200A
:10440B00636F6E6E656374696F6E206973204E47C0
:10441B000A00555720636F6E6E656374696F6E206B
:10442B006973204F4B0A00555720636F6E6E65639F
:10443B0074696F6E206973204E470A00436F6E6E6E
:10444B00656374696F6E3A2055204F4B2C205620B4
:10445B004F4B2C2057204F4B0A00436F6E6E6563FA
:10446B0074696F6E3A2055204E472C2056204E47CC
:10447B002C2057204E470A00436F6E6E656374699C
:10448B006F6E3A2055204E472C2056204F4B2C2038
:10449B0057204F4B0A00436F6E6E656374696F6EE6
:1044AB003A2055204F4B2C2056204F4B2C20572079
:1044BB004E470A00436F6E6E656374696F6E3A20E8
:1044CB0055204F4B2C2056204E472C2057204F4B1E
:1044DB000A00436F6E6E656374696F6E3A205520E8
:1044EB004F4B2C2056204F4B2C2057204F4B2069E5
:1044FB006D706F737369626C6520636173652E0AEF
:10450B0000544553542047617465204472697665A5
:10451B00722E2E2E2E2E2E2E2E2C202050726573A8
:10452B007320524553455420746F20455849542EDF
:10453B000A005445535420524541442041444320E2
:10454B00524553554C542053540A004E6F746869AE
:10455B006E6720746F20746573742E0A00596F7523
:10456B002073686F756C6420636F6E666967207467
:10457B00657374206974656D7320696E205365745F
:10458B0075702E682066697273742E0A00537461FD
:10459B0072742048616C6C3A20005652205374613F
:1045AB0072742048616C6C3A200053746F70204811
:1045BB00616C6C3A20004252414B450A0053746FB8
:1045CB007020262052455345540A0044697361629A
:1045DB006C65206F7665722063757272656E7420E0
:1045EB0070726F74656374696F6E0A00456E6162F9
:1045FB006C65206F7665722063757272656E7420C0
:10460B0070726F74656374696F6E0A0044697361CD
:10461B00626C65206C6F636B20726F746F722070AD
:10462B00726F74656374696F6E0A00456E61626CBC
:10463B0065206C6F636B20726F746F722070726F7A
:10464B0074656374696F6E0A0048616C6C3A200084
:10465B0020202020204D6F7665640A004C6973740E
:10466B0020666163746F727920646174612E0A0035
:10467B004C6973742063757272656E742073657404
:10468B0074696E67732E0A004C4F4F5020004343E2
:10469B0057200043572000506572696F643A2030F1
:1046AB007800205461726765743A002052504D3A7D
:1046BB00005441524745545F43555252454E543A6C
:1046CB0020307800204E4F573A203078005441521A
:1046DB004745545F43555252454E543A2000204EA5
:1046EB004F573A20004C4F434B20524F544F5220C0
:1046FB00202050524F54454354494F4E20656E6114
:10470B00626C65642E2043757272656E743A3078F4
:10471B0000560A004C4F434B20524F544F5220200F
:10472B002050524F54454354494F4E206469736196
:10473B00626C65642E0A004F564552204355525207
:10474B00454E542050524F54454354494F4E2065CB
:10475B006E61626C65642E200020202020202020BA
:10476B002020202020202020202020202020434DEE
:10477B0050206C696D69743A20004F5645522043A6
:10478B00555252454E542050524F54454354494F65
:10479B004E2064697361626C65642E0A0043757206
:1047AB0072656E742048616C6C20737461747573E0
:1047BB003A20004D6F746F722073657475703A0AEE
:1047CB00004D4F544F525F504F4C455F5041495233
:1047DB003A200050574D5F445554593A202000540D
:1047EB0041524745545F53504545443A20004D4193
:1047FB005853504545443A2020202020004D494E27
:10480B0053504545443A2020202020005441524724
:10481B00455F43555252454E543A202020202020CC
:10482B003078004F5645525F43555252454E545FB8
:10483B0056414C55453A2030780044756D702053E5
:10484B00595354454D20646174612E0A00494F43FE
:10485B00464750305F303D307800494F4346475014
:10486B00305F313D307800494F43464750305F321F
:10487B003D307800494F43464750305F333D3078E9
:10488B0000494F43464750305F343D307800494F25
:10489B0043464750305F353D307800494F434647DC
:1048AB0050305F363D307800494F43464750305FBC
:1048BB00373D307800494F43464750315F303D30EC
:1048CB007800494F43464750315F313D30780049BE
:1048DB004F43464750315F323D307800494F434696
:1048EB004750315F333D307800494F434647503195
:1048FB005F343D307800494F43464750315F353D7B
:10490B00307800494F43464750315F363D30780091
:10491B00494F43464750315F373D307800494F434D
:10492B00464750325F303D307800494F4346475041
:10493B00325F313D307800494F43464750325F324A
:10494B003D307800494F43464750325F333D307816
:10495B0000494F43464750325F343D307800494F52
:10496B0043464750325F353D307800494F43464709
:10497B0050325F363D307800494F43464750325FE7
:10498B00373D307800494F43464750335F303D3019
:10499B007800494F43464750335F313D30780049EB
:1049AB004F43464750335F323D307800494F4346C3
:1049BB004750335F333D3078004D464346475030C8
:1049CB005F303D3078004D4643464750305F313DB8
:1049DB003078004D4643464750305F323D307800CB
:1049EB004D4643464750305F333D3078004D46438C
:1049FB00464750305F343D3078004D464346475074
:104A0B00305F353D3078004D4643464750305F367A
:104A1B003D3078004D4643464750305F373D307848
:104A2B00004D4643464750315F303D3078004D4690
:104A3B0043464750315F313D3078004D4643464742
:104A4B0050315F323D3078004D4643464750315F21
:104A5B00333D3078004D4643464750315F343D304F
:104A6B0078004D4643464750315F353D3078004D19
:104A7B004643464750315F363D3078004D464346FE
:104A8B004750315F373D3078004D464346475032F3
:104A9B005F303D3078004D4643464750325F313DE5
:104AAB003078004D4643464750325F323D307800F8
:104ABB004D4643464750325F333D3078004D4643B9
:104ACB00464750325F343D3078004D4643464750A1
:104ADB00325F353D3078004D4643464750325F36A6
:104AEB003D3078004D4643464750325F373D307876
:104AFB00004D4643464750335F303D3078004D46BE
:104B0B0043464750335F313D3078004D464346476F
:104B1B0050335F323D3078004D4643464750335F4C
:104B2B00333D30780050305F303D30780050305F8F
:104B3B00313D30780050305F323D30780050305F7F
:104B4B00333D30780050305F343D30780050305F6B
:104B5B00353D30780050305F363D30780050305F57
:104B6B00373D30780050315F303D30780050315F49
:104B7B00313D30780050315F323D30780050315F3D
:104B8B00333D30780050315F343D30780050315F29
:104B9B00353D30780050315F363D30780050315F15
:104BAB00373D30780050325F303D30780050325F07
:104BBB00313D30780050325F323D30780050325FFB
:104BCB00333D30780050325F343D30780050325FE7
:104BDB00353D30780050325F363D30780050325FD3
:104BEB00373D30780050335F303D30780050335FC5
:104BFB00313D30780050335F323D30780050335FB9
:104C0B00333D307800496E76616C696420636F6D5B
:104C1B006D616E64203A20005B626C6463406D7959
:0E4C2B00736F6E206373383936335D232000BB
:10650E004403BF000000004403AF0000000044033A
:10651E00B3000000004403B7000000004103C400B4
:10652E004103BB004103BE004103BC004103BD005B
:04653E004103AE0067
:03007300028440C4
:10844000C0E0C0F0C083C082C0D075D000C000C002
:0784500004C005C006C007CF
:10845700E5CF30E30D75AF0075AE00AFCFEF54F742
:10846700F5CFE5CF30E70D75AC0075AD00AFCFEFB9
:10847700547FF5CF90A003E030E7359002D5E0FCBC
:10848700A3E0FDA3E0FEA3E02401FFE43EFEE43DFC
:10849700FDE43CFC9002D5125E3E75910090A0046D
:1084A700E4F0A374DCF0A3740BF090A0037419F04C
:1084B700D007D006D005D004D000D0D0D082D0834A
:0584C700D0F0D0E0320E
:03004B00028A9393
:108A9300C0E0C0F0C083C082C0D075D000C000C0A9
:108AA30001C002C003C004C005C006C007E594545A
:108AB300F024E0601024E0601024C0601024707083
:108AC300117F41800A7F4280067F4380027F4412E8
:108AD3009271759400D007D006D005D004D003D08E
:108AE30002D001D000D0D0D082D083D0F0D0E032F9
:03006300029645BD
:10964500C0E0C083C08290A08FE054FBF0D082D0F0
:0496550083D0E032AC
:03001B0002981A2E
:07981A00758D00758B003213
:030003000270B3D5
:1070B300C0E0C0F0C083C082C0D075D000C000C0A3
:1070C30001C002C003C004C005C006C007C2A82097
:1070D30089030271CC9002FBE004F070069002FA7F
:1070E300E004F09003B7E0FCA3E0FDA3E0FEA3E01F
:1070F3002401FFE43EFEE43DFDE43CFC9003B712B3
:107103005E3E9003BFE0FCA3E0FDA3E0FEA3E0240A
:1071130001FFE43EFEE43DFDE43CFC9003BF125E50
:107123003E9003BBE004F090A0527401F0A3F0A3DF
:10713300F0E580541C1313543F9002FFF09002C3F8
:10714300E0604A9003C3E004F09002FFE0FFE4FC38
:10715300FDFE126E1F7F201292719002FFE0B402B7
:107163000A9003BEE06403701A800E9002FFE0B43D
:1071730001119003BEE0B4030A7F201292717F20B5
:107183001292719002FFE09003BEF080309003A54D
:10719300E070169002CEE0702490037DE0701E90A4
:1071A30002FFE0FF126F5D80149002CEE0700E903C
:1071B300037DE070089002FFE0FF12720890A05276
:1071C3007402F0A3F0A3F0C28990A028E06009E064
:1071D30054E3F090A038800D90A038E0600AE054AA
:1071E300E3F090A028741CF0D2A8D007D006D005F5
:1071F300D004D003D002D001D000D0D0D082D0832D
:05720300D0F0D0E032E4
:03000B00024C396B
:104C3900C0E0C0F0C083C082C0D075D000C000C041
:0D4C490001C002C003C004C005C006C007C2
:104C56009002E1E004F06402600302531FF0900347
:104C66007EE0600302531F9003ACE0700C9002D903
:104C7600E070069003ADE060057F121279F59002B0
:104C8600D9E06003127D729002FAE0FEA3E0FF7C99
:104C9600027D58125C29AC06AD0790037CE075F0E6
:104CA60006A4FFAEF0CFCDCFCECCCE125C3B9002A9
:104CB600DBEEF0A3EFF09002FAE4F0A3F0EF4E90F3
:104CC60003C47005E004F08002E4F09002DBE070BB
:104CD60002A3E06003024D819003C4E0640A60030E
:104CE600024D819002CDE06003024D81128EF99053
:104CF60002FFE0FFC394014006EFD3940640297BF0
:104D0600FF7A36797B127F0B7BFF7A36797D127FAD
:104D16000B9002FFE0FFE4FCFDFE126E1F7BFF7AA4
:104D260036797B127F0B804E7F6412967E9002DE70
:104D3600E0D3946440037419F07BFF7A3679C3128A
:104D46007F0B9002DEE0FFE4FCFDFE126E1F7BFF90
:104D56007A36797B127F0BC2A8128CB8128EF99024
:104D660003A5E09002FF7007E0FF126F5D8005E08B
:104D7600FF127208D2A89003C4E4F09002CCE0704F
:104D86000302500A90037FE0B401087BFF7A36796C
:104D9600E8801B90037FE070087BFF7A3679EF800E
:104DA6000D90037FE0B402097BFF7A3679F5127F16
:104DB6000B90037FE070147BFF7A3679FE127F0B2F
:104DC6009002DEE0FFE4FCFDFE801C90037FE064C1
:104DD6000170197BFF7A37790B127F0B9002BAE0CC
:104DE600FEA3E0FFE4FCFD126E1F801C90037FE033
:104DF600640270457BFF7A377913127F0B9003A309
:104E0600E0FEA3E0FF127ADF7F201292717BFF7A29
:104E1600377904127F0B900396E0FEA3E0FF127A27
:104E2600DF7F3D129271900396E0FEA3E0FFE4FC63
:104E3600FD126E1F7F201292717BFF7A3779261240
:104E46007F0B9002DBE0FEA3E0FFE4FCFD126E1F89
:104E56007F201292719003A5E07F43600712927142
:104E66007F4380001292717F571292717F201292B7
:104E7600717F441292717F751292717F74129271D2
:104E86007F791292717F3A1292719002DEE0B464D9
:104E96000E7F311292717F301292717F30801B909B
:104EA60002DEE075F00A842430FF1292719002DE71
:104EB600E075F00A84E5F02430FF1292717F20122B
:104EC60092717F501292717F651292717F72129267
:104ED600717F691292717F6F1292717F6412927163
:104EE6007F3A1292717F301292717F78129271908E
:104EF6000388E0FF7E00127ADF900388E0FEA3E0DD
:104F0600FF127ADF9002D9E07003024F987F2012D9
:104F160092717F431292717F751292717F72129213
:104F2600717F721292717F651292717F6E12927109
:104F36007F741292717F3A1292717F301292717F52
:104F460078129271900396E0FF7E00127ADF90034A
:104F560096E0FEA3E0FF127ADF7F201292719003A3
:104F660096E0FEA3E0FF7C137D88125E7BE4FB7A6D
:104F760010F9F8125D67900106125E3E900106E098
:104F8600FCA3E0FDA3E0FEA3E0FF1273547F201212
:104F960092719003ACE0602E7F201292717BFF7AB3
:104FA60037792B127F0B900106125E4A000003EB45
:104FB600900106E0FCA3E0FDA3E0FEA3E0FF127370
:104FC600547F201292719002D9E0602E7F201292B7
:104FD600717BFF7A377937127F0B900106125E4A92
:104FE600000000FD900106E0FCA3E0FDA3E0FEA3A7
:104FF600E0FF1273547F201292717F0A1292717F22
:105006000D12927190037FE0640160030251769065
:105016000386E004F0E06405600302531F9002BBC0
:10502600E02438FF9002BAE034FFFEC39002DCE0D1
:105036009F9002DBE09E501C9002DEE02403F0E02D
:10504600C3946440037464F090037DE060030253EC
:105056001A0251639002BBE024C8FF9002BAE03402
:1050660000FED39002DCE09F9002DBE09E401B90A6
:1050760002DEE024FDF0E0D394005002E4F0900359
:105086007DE0600302531A0251639002BBE0249C48
:10509600FF9002BAE034FFFEC39002DCE09F90026C
:1050A600DBE09E501C9002DEE02402F0E0C3946434
:1050B60040037464F090037DE0600302531A0251CA
:1050C600639002BBE02464FF9002BAE03400FED392
:1050D6009002DCE09F9002DBE09E401A9002DEE048
:1050E60024FEF0E0D394005002E4F090037DE060EB
:1050F6000302531A80679002BBE024CEFF9002BAE7
:10510600E034FFFEC39002DCE09F9002DBE09E509D
:105116001A9002DEE004F0E0C3946440037464F085
:1051260090037DE0600302531A80329002BBE024B4
:1051360032FF9002BAE03400FED39002DCE09F908A
:1051460002DBE09E500302531A9002DEE014F0E008
:10515600D394005002E4F090037DE0701090038831
:10516600E0FEA3E0FF9002DEE0FD126C9902531A06
:1051760090037FE06402600302531F900386E004FD
:10518600F0E06414600302531F9003A4E024CEFFF2
:105196009003A3E034FFFEC3900397E09F9003962D
:1051A600E09E50257BFF7A377943127F0B9002DE13
:1051B600E02403F0E0C3946440037464F090037D3C
:1051C600E0600302531A0252FF9003A4E02432FF68
:1051D6009003A3E03400FED3900397E09F900396DC
:1051E600E09E40247BFF7A37795D127F0B9002DECA
:1051F600E024FDF0E0D394005002E4F090037DE05B
:10520600600302531A0252FF9003A4E024E2FF90C7
:1052160003A3E034FFFEC3900397E09F900396E05C
:105226009E50257BFF7A37797F127F0B9002DEE056
:105236002402F0E0C3946440037464F090037DE0BC
:10524600600302531A0252FF9003A4E0241EFF904B
:1052560003A3E03400FED3900397E09F900396E00B
:105266009E40237BFF7A377999127F0B9002DEE00E
:1052760024FEF0E0D394005002E4F090037DE06059
:105286000302531A80739003A4E024F6FF9003A34D
:10529600E034FFFEC3900397E09F900396E09E5094
:1052A600207BFF7A3779BB127F0B9002DEE004F099
:1052B600E0C3946440037464F090037DE07055800D
:1052C600389003A4E0240AFF9003A3E03400FED341
:1052D600900397E09F900396E09E402F7BFF7A37DE
:1052E60079D5127F0B9002DEE014F0E0D3940050E3
:1052F60002E4F090037DE0701B900388E0FEA3E0DB
:10530600FF9002DEE0FD126C9980097BFF7A377907
:0F531600F7127F0B900386E4F0758C00758A0008
:10532500D007D006D005D004D003D002D001D000DC
:0B533500D0D0D082D083D0F0D0E03286
:03003300028893AD
:10889300C0E0C0F0C083C082C0D075D000C000C0AB
:0D88A30001C002C003C004C005C006C0072C
:1088B000E5A730E00353A7FEE5A730E51E53A7DF89
:1088C000900179E5A6F0E0B40D097F0A1292717F5C
:1088D0000D8005900179E0FF12927175A7A0D2AFCB
:1088E000D007D006D005D004D003D002D001D000EC
:0B88F000D0D0D082D083D0F0D0E03296
:0300230002007662
:10007600C0E0C0F0C083C082C0D075D000C000C050
:0D00860001C002C003C004C005C006C007D1
:10009300900182125E4A00000000900186125E4ABF
:1000A3000000000090018A125E4A000000009001E7
:1000B3008E125E4A00000000900192125E4A000018
:1000C3000000900196125E4A0000000090019A120F
:1000D3005E4A0000000090019E125E4A000000008C
:1000E3009001A2E4F0A3F0A3F0A3F0A3F0A3125EA7
:1000F3004A000000009001ABE4F02098030236426E
:10010300C29890017BE599F0E0FF9003BDE024C520
:10011300F582E43403F583EFF09003BDE004F0EFE0
:10012300B40D0AE09003AEF09003BDE4F09003AE8B
:10013300E0FFD3940250030209A4EF6407704790D1
:1001430003C5E06475600302099FA3E06470600364
:1001530002099FA3E06474600302099FA3E064693A
:10016300600302099FA3E0646D600302099FA3E09B
:100173006465600302099F7BFF7A36797B127F0BEC
:100183001277FE02099F9003AEE064066003020249
:100193006D9003C5E06463702EA3E0646C7028A3C4
:1001A300E0646F7022A3E0B4631DA3E0B46B187B1B
:1001B300FF7A36797B127F0B7BFF7A387902127FC5
:1001C3000B12953E02099F9003C5E0647060030221
:1001D300099FA3E06472600302099FA3E06469605E
:1001E3000302099FA3E0646E600302099FA3E06416
:1001F30074600302099F7BFF7A36797B127F0B7B46
:10020300FF7A387919127F0B9001ACE4F0A3F090D8
:1002130001ACE0FEA3E0FFC3941AEE648094805027
:10022300E7EF2441FF1292717FC812967E7FC812B6
:10023300967E7FC812967E7FC812967E7FC81296DE
:100243007E7FC812967E7FC812967E7FC812967EE6
:100253007FC812967E7FC812967E9001ADE004F0AF
:1002630070AD9001ACE004F080A59003AEE06405AE
:1002730060030204819003C5E0646860030204180C
:10028300A3E064656003020418A3E0646C600302E6
:100293000418A3E0647060030204187BFF7A3679C4
:1002A3007B127F0B7BFF7A387944127F0B7BFF7ABB
:1002B30038795A127F0B7BFF7A36797B127F0B7B5F
:1002C300FF7A38797A127F0B7BFF7A38798B127F2A
:1002D3000B7BFF7A38799A127F0B7BFF7A3879A4EC
:1002E300127F0B7BFF7A3879B0127F0B7BFF7A3852
:1002F30079BB127F0B7BFF7A3879C5127F0B7BFFAB
:100303007A3879E2127F0B7BFF7A397900127F0BFF
:100313007BFF7A397921127F0B7BFF7A39793D1282
:100323007F0B7BFF7A39795F127F0B7BFF7A3979F9
:1003330081127F0B7BFF7A3979DC127F0B7BFF7A8B
:100343003A7938127F0B7BFF7A3A7992127F0B7BD3
:10035300FF7A3A79EC127F0B7BFF7A3A79FB127FB3
:100363000B7BFF7A3B791A127F0B7BFF7A3B793346
:10037300127F0B7BFF7A3B794A127F0B7BFF7A3B21
:10038300795F127F0B7BFF7A3B7974127F0B7BFFC4
:100393007A3B7992127F0B7BFF7A3B79A8127F0B12
:1003A3007BFF7A3B79BD127F0B7BFF7A3B79CF12C0
:1003B3007F0B7BFF7A3B79E6127F0B7BFF7A3B79DE
:1003C300F8127F0B7BFF7A3C790A127F0B7BFF7A53
:1003D3003C791C127F0B7BFF7A3C792E127F0B7BBF
:1003E300FF7A3C7940127F0B7BFF7A3C7952127F74
:1003F3000B7BFF7A3C7961127F0B7BFF7A3C797030
:10040300127F0B7BFF7A3C79A0127F0B7BFF7A3C38
:1004130079C202075B9003C5E06468600302099F29
:10042300A3E06461600302099FA3E0646C600302BC
:10043300099FA3E0646C600302099F7BFF7A36790E
:100443007B127F0B7BFF7A3C79E6127F0B9002C312
:10045300E07BFFB401117A3D7904127F0B9002C354
:10046300E4F0C2A802099F7A3D7923127F0B900220
:10047300C37401F09003C3E4F0D2A802099F900370
:10048300AEE0640460030207289003C5E06465706E
:1004930024A3E0B46E1FA3E0B4671A7BFF7A367916
:1004A3007B127F0B7BFF7A3D795D127F0B7F0112FD
:1004B300973602099F9003C5E0647060030205AE9E
:1004C300A3E0647760030205AEA3E0646D600302FA
:1004D30005AE7BFF7A36797B127F0B7BFF7A3D7902
:1004E3006F127F0B90037F7403F09002DE741EF093
:1004F30090038804F0A37440F0900388E0FEA3E027
:10050300FBAA06E4F9F8FF7E127D7AFC128FCB90EA
:1005130002BCEEF0A3EFF07BFF7A3D7998127F0BDC
:100523007BFF7A3D799F127F0B9002DEE0FFE4FCB4
:10053300FDFE126E1F7BFF7A3D79A7127F0B90039E
:1005430088E0FEA3E0FF127ADF7BFF7A3D79B512E4
:100553007F0B900388E0FEA3E0FFE4FCFD126E1F17
:100563007BFF7A3D79B9127F0B9002BCE0FEA3E0DA
:10057300FFE4FCFD126E1F7BFF7A3D79C3127F0BF4
:10058300900388E0FEA3E0FF9002DEE0FD1275D940
:1005930090A0587420F0A37401F090A05CF0A3F035
:1005A30090A079F090A078F002099F9003C5E064D1
:1005B300646003020705A3E064616003020705A307
:1005C300E0646360030207057BFF7A36797B127F61
:1005D3000B7BFF7A3D79C8127F0B7F01128C0D7F55
:1005E3001D128C0D7F17128C0D9001ACE4F0A3F05B
:1005F3009001ACE0FEA3E0FF7C007D33125C299008
:1006030001A5EEF0A3EFF0E4FD126E1F7F2012921E
:10061300719001A5E0FCA3E0FDECFFED1296F97FDC
:10062300C812967E7FC812967E7FC812967E7FC8B8
:1006330012967E7FC812967E7FC812967E7FC8125E
:10064300967E7FC812967E7FC812967E7FC81296CA
:100653007E7FC812967E7FC812967E7FC812967ED2
:100663007FC812967E7FC812967E9001ADE004F09B
:1006730070069001ACE004F0C39001ADE0941490D7
:1006830001ACE06480948050030205F39001ACE474
:10069300F0A3F09001ACE0FEA3E0FFC39433EE645B
:1006A30080948040030205EC7C007D64125C29EE9B
:1006B3003395E0FDFC126E1F7F201292719001AC06
:1006C300E0FEA3E0FF7C007D64125C291290937F1F
:1006D300C812967E7FC812967E7FC812967E7FC808
:1006E30012967E7FC812967E7FC812967E7FC812AE
:1006F300967E9001ADE004F070999001ACE004F0B7
:1007030080919003C5E06469600302099FA3E064DC
:1007130066600302099FA3E06462600302099F12FB
:1007230085DE02099F9003AEE06403600302099F24
:100733009003C5E0FFB46C06A3E06473600BEFB4F1
:100743006C1C9003C6E0B46C157BFF7A36797B1280
:100753007F0B7BFF7A3E7918127F0B02099F900370
:10076300C5E06476600302099FA3E064726003023C
:10077300099F7BFF7A36797B127F0B7BFF7A3E7969
:1007830037127F0B7BFF7A3E796A127F0B7F127ED3
:10079300007D007C00126E1F7BFF7A3E7974127F0E
:1007A3000B7F0D7E007D007C00126E1F7BFF7A366F
:1007B300797B127F0B9001A7E0FCA3E0FDA3E0FE91
:1007C300A3E02401FFE43EFEE43DFDE43CFC900194
:1007D300A7125E3EE47B887A13F9F89001A7E0FC48
:1007E300A3E0FDA3E0FEA3E0FF125D67AC00AD0153
:1007F300AE02AF03E4FBFAF9F8C3125E0770B67BEF
:10080300FF7A3E7982127F0B7F1212989D7F12121C
:1008130079F57F12126B1F900396E0FEA3E0FF7C35
:10082300137D88125E7BE4FB7A10F9F8125D679002
:10083300017E125E3E90017EE0FCA3E0FDA3E0FE9C
:10084300A3E0FF126E1F7F3B1292717BFF7A3E790A
:1008530087127F0B7F0D12989D7F0D1279F57F0D07
:10086300126B1F900396E0FEA3E0FF7C137D8812BA
:100873005E7BE4FB7A10F9F8125D6790017E125EED
:100883003E90017EE0FCA3E0FDA3E0FEA3E0FF12A7
:100893006E1FE47F947E11FDFC90017EE0F8A3E0DF
:1008A300F9A3E0FAA3E0FBC3125E0740089001AB93
:1008B3007464F0804EE47FF47E01FDFC90017EE0E1
:1008C300F8A3E0F9A3E0FAA3E0FBD3125E07500715
:1008D3009001ABE4F0802C90017EE0FCA3E0FDA34B
:1008E300E0FEA3E0240CFFEE34FEFEED34FFFDEC4E
:1008F30034FFFCE47B35FAF9F8125D67EF241990B5
:1009030001ABF07BFF7A3E7992127F0B9001ABE053
:10091300FFE4FCFDFE126E1F7BFF7A3E799A127F85
:100923000B7F6412967E7F6412967E7F6412967E9E
:100933007F6412967E7F6412967E7F6412967E7F1A
:100943006412967E7F6412967E7F6412967E7F6425
:1009530012967E7F6412967E7F6412967E7F641267
:10096300967E7F6412967E7F6412967E7F641296D3
:100973007E7F6412967E7F6412967E7F6412967EDB
:100983007F6412967E7F6412967E7F6412967E7FCA
:100993006412967E7F6412967E0207B89003AEE4DB
:1009A300F090017BE0640D60030236209003AEE01B
:1009B300640260030236207BFF7A36797B127F0B59
:1009C3009003C5E0FF64527003023620EF645A704F
:1009D30003023620EF64577003023620EF64517030
:1009E30003023620EF643070717BFF7A3E799D12EB
:1009F3007F0B7FB87E0B1297F77FF57E001298006E
:100A03007F907E011298097F19129821E4FF1298B2
:100A13002DE4FF129833E4FF129839E4FF12983F54
:100A2300E4FF120036E4FF129845E4FF129736E420
:100A3300FF12984BE4FF129851E4FF129857E4FF1A
:100A430012985DE4FF129863E4FF1298697F021223
:100A5300986F7F011294A10214D09003C5E0643112
:100A6300703B7BFF7A3E79A6127F0B9002DEE0FF9C
:100A7300E4FCFDFE126E1F7BFF7A36797B127F0B3F
:100A83009002DEE0FF129821900388E0FEA3E0FFCE
:100A93009002DEE0FD126C997F010225BD9003C533
:100AA300E06432703B7BFF7A3E79C8127F0B900281
:100AB300DEE0FFE4FCFDFE126E1F7BFF7A36797BDE
:100AC300127F0B9002DEE0FF129821900388E0FE74
:100AD300A3E0FF9002DEE0FD126C997F020225BDC8
:100AE3009003C5E06433703B7BFF7A3E79EA127F63
:100AF3000B9002DEE0FFE4FCFDFE126E1F7BFF7A2B
:100B030036797B127F0B9002DEE0FF12982190036F
:100B130088E0FEA3E0FF9002DEE0FD126C997F0304
:100B23000225BD9003C5E06434703B7BFF7A3F79B7
:100B33000C127F0B9002DEE0FFE4FCFDFE126E1F41
:100B43007BFF7A36797B127F0B9002DEE0FF1298EF
:100B530021900388E0FEA3E0FF9002DEE0FD126C2B
:100B6300997F040225BD9003C5E06435703B7BFF8C
:100B73007A3F792E127F0B9002DEE0FFE4FCFDFE4C
:100B8300126E1F7BFF7A36797B127F0B9002DEE0B9
:100B9300FF129821900388E0FEA3E0FF9002DEE0BD
:100BA300FD126C997F050225BD9003C5E064367084
:100BB3003B7BFF7A3F7950127F0B9002DEE0FFE42C
:100BC300FCFDFE126E1F7BFF7A36797B127F0B9042
:100BD30002DEE0FF129821900388E0FEA3E0FF907D
:100BE30002DEE0FD126C997F060225BD9003C5E08D
:100BF3006437707490037FE0FF600464037038907F
:100C030002DEE09002FEF09002DE7446F07BFF7A93
:100C13003679FE127F0B9002DEE0FFE4FCFDFE124C
:100C23006E1F7BFF7A36797B127F0B90037DE0602A
:100C330003023620020E8290037FE0B4010C90027F
:100C4300BA741BF0A37458020D4190037FE0640251
:100C530060030236209003A37406F0A374B8F07BFC
:100C6300FF7A3F7972020EFE9003C5E06438707319
:100C730090037FE0FF6004640370389002DEE0902D
:100C830002FEF09002DE7450F07BFF7A3679FE129A
:100C93007F0B9002DEE0FFE4FCFDFE126E1F7BFF84
:100CA3007A36797B127F0B90037DE0600302362056
:100CB300020E8290037FE0B4010B9002BA741FF01E
:100CC300A37440807990037FE064026003023620BE
:100CD3009003A37407F0A374AEF07BFF7A3F798B84
:100CE300020EFE9003C5E06439707B90037FE0FF42
:100CF3006004640370389002DEE09002FEF090021C
:100D0300DE745AF07BFF7A3679FE127F0B9002DE97
:100D1300E0FFE4FCFDFE126E1F7BFF7A36797B1247
:100D23007F0B90037DE06003023620020E82900366
:100D33007FE0B401139002BA7423F0A37428F07B0C
:100D4300FF7A37790B020EC590037FE064026003DC
:100D53000236209003A37408F0A374A3F07BFF7AF8
:100D63003F79A4020EFE9003C5E0642B6003020EDC
:100D73002390037DE060099002E2E004F002362054
:100D830090037FE0FF6004640370409002DEE09014
:100D930002FEF09002DE04F0E0D394644003746436
:100DA300F07BFF7A3F79BD127F0B9002DEE0FFE418
:100DB300FCFDFE126E1F7BFF7A36797B127F0B9050
:100DC300037DE06003023620020E8290037FE0641D
:100DD30001702B9002BBE024C8F09002BAE034000B
:100DE300F0D3A3E094289002BAE09423400774233D
:100DF300F0A37428F07BFF7A3F79CC020EC59003F1
:100E03007FE0640260030236209003A4E02419F01B
:100E13009003A3E03400F07BFF7A3F79E3020EFEF8
:100E23009003C5E0642D6003020F1F90037DE06013
:100E3300099002E2E014F002362090037FE0FF60A5
:100E4300046403704D9002DEE09002FEF09002DE37
:100E53007003F08003E014F07BFF7A40790C127F7B
:100E63000B9002DEE0FFE4FCFDFE126E1F7BFF7AB7
:100E730036797B127F0B90037DE06003023620906E
:100E83000388E0FEA3E0FF9002DEE0FD126C99020E
:100E9300362090037FE0640170309002BBE0243879
:100EA300F09002BAE034FFF0C3A3E094E89002BAF2
:100EB300E0940350077403F0A374E8F07BFF7A40D7
:100EC300791B127F0B9002BA804790037FE0640284
:100ED30060030236209003A3E07002A3E070089041
:100EE30003A3F0A3F0800E9003A4E024E7F09003A3
:100EF300A3E034FFF07BFF7A407931127F0B90033C
:100F0300A3E0FEA3E0FF127ADF7F3D12927190030C
:100F1300A3E0FEA3E0FFE4FCFD02157A9003C5E025
:100F2300647B702E9002CEE0605F9002B8E0D394B1
:100F3300005004E4F080069002B8E014F07BFF7ADE
:100F430040795A127F0B9002B8E0FFE4FCFDFE02E9
:100F5300157A9003C5E0647D70389002CEE0602975
:100F63009002B8E0C3947840057478F0800690024C
:100F7300B8E004F07BFF7A4079A8127F0B9002B8A7
:100F8300E0FFE4FCFDFE02157A7BFF7A40797702ED
:100F9300361D9003C5E0645B7073D3900389E094BE
:100FA30010900388E094005008E4F0A37410F080DC
:100FB3000E900389E024F0F0900388E034FFF07B87
:100FC300FF7A4079C5127F0B900388E0FEA3E0FF10
:100FD300127ADF7F3D129271900388E0FEA3E0FF57
:100FE300E4FCFD126E1F7BFF7A36797B127F0B9038
:100FF3000388E0FEA3E0FF9002DEE0FD1275D990C6
:10100300037FE0640360030236200213C69003C526
:10101300E0645D7074C3900389E094EF900388E00B
:10102300947F4009747FF0A374FFF0800E900389CE
:10103300E02410F0900388E03400F07BFF7A4079DD
:10104300DB127F0B900388E0FEA3E0FF127ADF7FC1
:101053003D129271900388E0FEA3E0FFE4FCFD12D1
:101063006E1F7BFF7A36797B127F0B900388E0FE3D
:10107300A3E0FF9002DEE0FD1275D990037FE064E8
:101083000360030236200213C69003C5E0643C707C
:101093002290A08EE0541F9003A6F0E0D39400505A
:1010A30004E4F080069003A6E014F07BFF7A407915
:1010B300F180299003C5E0643E705B90A08EE054FC
:1010C3001F9003A6F0E0C3941F4005741FF0800631
:1010D3009003A6E004F07BFF7A417924127F0B9002
:1010E30003A6E0FF7E00127ADF7F3D129271900328
:1010F300A6E0FFE4FCFDFE126E1F7BFF7A4179142C
:10110300127F0B90A08EE054E0FF9003A6E04F9077
:10111300A08EF00236209003C5E064417043900333
:101123008804F0A3E4F07BFF7A417947127F0B90A8
:101133000388E0FEA3E0FF127ADF7BFF7A36797B38
:10114300127F0B900388E0FEA3E0FF9002DEE0FD38
:101153001275D990037FE064036003023620021303
:10116300C69003C5E06442704490038804F0A374FE
:1011730040F07BFF7A417947127F0B900388E0FEB2
:10118300A3E0FF127ADF7BFF7A36797B127F0B9025
:101193000388E0FEA3E0FF9002DEE0FD1275D99024
:1011A300037FE0640360030236200213C69003C585
:1011B300E06443704490038804F0A37480F07BFFE1
:1011C3007A417947127F0B900388E0FEA3E0FF1278
:1011D3007ADF7BFF7A36797B127F0B900388E0FE00
:1011E300A3E0FF9002DEE0FD1275D990037FE06477
:1011F3000360030236200213C69003C5E064447003
:101203004490038804F0A374C0F07BFF7A417947CC
:10121300127F0B900388E0FEA3E0FF127ADF7BFFCF
:101223007A36797B127F0B900388E0FEA3E0FF9070
:1012330002DEE0FD1275D990037FE06403600302D0
:1012430036200213C69003C5E064457044900388BA
:101253007402F0A3E4F07BFF7A417947127F0B908D
:101263000388E0FEA3E0FF127ADF7BFF7A36797B07
:10127300127F0B900388E0FEA3E0FF9002DEE0FD07
:101283001275D990037FE0640360030236200213D2
:10129300C69003C5E0644670459003887402F0A3CA
:1012A3007440F07BFF7A417947127F0B900388E00B
:1012B300FEA3E0FF127ADF7BFF7A36797B127F0B86
:1012C300900388E0FEA3E0FF9002DEE0FD1275D9F3
:1012D30090037FE0640360030236200213C6900389
:1012E300C5E0644770459003887402F0A37480F0EE
:1012F3007BFF7A417947127F0B900388E0FEA3E0DE
:10130300FF127ADF7BFF7A36797B127F0B9003889B
:10131300E0FEA3E0FF9002DEE0FD1275D990037FAB
:10132300E0640360030236200213C69003C5E06441
:101333004870449003887402F0A374C0F07BFF7A72
:10134300417947127F0B900388E0FEA3E0FF127AF6
:10135300DF7BFF7A36797B127F0B900388E0FEA355
:10136300E0FF9002DEE0FD1275D990037FE0640395
:101373006003023620804C9003C5E0644960030299
:1013830014689003887403F0A3E4F07BFF7A417937
:1013930047127F0B900388E0FEA3E0FF127ADF7B06
:1013A300FF7A36797B127F0B900388E0FEA3E0FF80
:1013B3009002DEE0FD1275D990037FE064036003C1
:1013C300023620900388E0FEA3E0FBAA06E4F9F8C6
:1013D300FF7E127D7AFC128FCB9002BCEEF0A3EF5E
:1013E300F07BFF7A3D7998127F0B7BFF7A3D799FE3
:1013F300127F0B9002DEE0FFE4FCFDFE126E1F7B0A
:10140300FF7A3D79A7127F0B900388E0FEA3E0FFEC
:10141300127ADF7BFF7A3D79B5127F0B900388E068
:10142300FEA3E0FFE4FCFD126E1F7BFF7A3D79B95A
:10143300127F0B9002BCE0FEA3E0FFE4FCFD126E02
:101443001F7BFF7A3D79C3127F0B90A0587420F065
:10145300A37401F090A05CF0A3F090A079F090A0A9
:1014630078F00236209003C5E0645070389002CEC5
:10147300E07BFFB4010B7A41794F127F0BE4FF80CD
:101483001E7A41796C127F0B9002B8E0FFE4FCFDF9
:10149300FE126E1F7BFF7A36797B127F0B7F011260
:1014A300984B0236209003C5E06453703390037D5C
:1014B300E07BFFB4010B7A417997127F0BE4FF8045
:1014C300097A4179A7127F0B7F0112985190038803
:1014D300E0FEA3E0FF9002DEE0FD1275D9023620A4
:1014E3009003C5E0FF64677003023620EFB458250C
:1014F3009003BCE07BFFB4010F7A4179B6127F0BF6
:101503009003BCE4F00236207A4179CB127F0B9032
:1015130003BC0226EA9003C5E06477706690037EFD
:10152300E0640160030236209003A5E07BFF700FA7
:101533007A4179DF127F0B9003A57401F0800C7A56
:101543004179E4127F0B9003A5E4F09002CEE070A2
:10155300030236209003A5E09002B87005742DF0C5
:101563008003744BF07BFF7A4179E8127F0B900282
:10157300B8E0FFE4FCFDFE126E1F7BFF7A36797B39
:1015830002361D9003C5E0647E70239002DAE07B8F
:10159300FFB4010B7A4179F5127F0BE4FF80097ADE
:1015A30042790B127F0B7F0112973602362090038C
:1015B300C5E0B46D259002CCE07BFFB4010F7A4205
:1015C3007920127F0B9002CCE4F00236207A427924
:1015D3002B127F0B9002CC0226EA9003C5E06478BD
:1015E300600302169B90037FE0702E7BFF7A4279A3
:1015F30035127F0B9002BAE0FEA3E0FFE4FCFD127C
:101603006E1F7BFF7A36797B127F0B90037F740109
:10161300F09003ADE4F002362090037FE0640170A4
:10162300427BFF7A427950127F0B9003A3E0FEA323
:10163300E0FF127ADF7BFF7A3D79B5127F0B9003CF
:10164300A3E0FEA3E0FFE4FCFD126E1F7BFF7A36EE
:10165300797B127F0B90037F7402F09003AD14F03B
:1016630002362090037FE0640260030236207BFF92
:101673007A427971127F0B9002DEE0FFE4FCFDFEFB
:10168300126E1F7BFF7A36797B127F0B90037FE408
:10169300F09003ADF00236209003C5E06479703A10
:1016A3007BFF7A3C79E6127F0B9002C3E07BFFB4A9
:1016B30001117A3D7904127F0B9002C3E4F0C2A8B2
:1016C3000236207A3D7923127F0B9002C37401F016
:1016D3009003C3E4F0D2A80236209003C5E064551A
:1016E30060030220EB7BFF7A427984127F0B900325
:1016F3007EE0701F7BFF7A4279A0127F0B90037EFE
:101703007401F09002CDF09002DBE4F0A3F0C2A8E4
:10171300128CB87BFF7A4279AC127F0B9002DEE425
:10172300F0900388E0FEA3E0FFE4FD1275D97F0289
:10173300126F5D9001ACE4F0A3F07FC812967E7F38
:10174300C812967E7FC812967E7FC812967E7FC887
:1017530012967E7FC812967E7FC812967E7FC8122D
:10176300967E7FC812967E7FC812967E7FC8129699
:101773007E7FC812967E7FC812967E7FC812967EA1
:101783007FC812967E7FC812967E7FC812967E7F90
:10179300C812967E7FC812967E7FC812967E7F12ED
:1017A3001279F57BFF7A4279BA127F0B900396E0A8
:1017B300FEA3E0FF127ADF7BFF7A3D79B5127F0B40
:1017C300900396E0FEA3E0FFE4FCFD126E1F7BFF97
:1017D3007A4279CE127F0B900396E0FEA3E0FF7C62
:1017E300137D88125E7BE4FB7A10F9F8125D679033
:1017F300017E125E3E7BFF7A4279D0127F0B90010D
:101803007EE0FCA3E0FDA3E0FEA3E0FF1273547BA4
:10181300FF7A4279D9127F0B7BFF7A4279DD127FFF
:101823000BE47B06FAF9F890017EE0FCA3E0FDA34C
:10183300E0FEA3E0FF125D671273547BFF7A4279E7
:10184300D9127F0BE47B06FAF9F890017EE0FCA342
:10185300E0FDA3E0FEA3E0FF125D67E4125A47E454
:10186300FBFAF9783F1259AA125A85900182125E47
:101873003E7BFF7A4279E6127F0B900182E0FCA364
:10188300E0FDA3E0FEA3E0FF126E1F7BFF7A427927
:10189300F8127F0B900192E0FCA3E0FDA3E0FEA30E
:1018A300E0FF900182E0F8A3E0F9A3E0FAA3E0FBF4
:1018B300EF2BFFEE3AFEED39FDEC38FC900192126E
:1018C3005E3E9001ADE004F070069001ACE004F0E0
:1018D300C39001ADE0940A9001ACE0648094805021
:1018E3000302173D900192E0FCA3E0FDA3E0FEA3F9
:1018F300E0FFE47B0AFAF9F8125D67900192125E49
:101903003E7BFF7A4279FD127F0B900192E0FCA3AC
:10191300E0FDA3E0FEA3E0FF126E1F7BFF7A427996
:10192300F8127F0B128CB87BFF7A437915127F0B69
:101933009002DE740AF0900388E0FEA3E0FF7D0AC4
:101943001275D97F01126F5D9001ACE4F0A3F07FB3
:10195300C812967E7FC812967E7FC812967E7FC875
:1019630012967E7FC812967E7FC812967E7FC8121B
:10197300967E7FC812967E7FC812967E7FC8129687
:101983007E7FC812967E7FC812967E7FC812967E8F
:101993007FC812967E7FC812967E7FC812967E7F7E
:1019A300C812967E7FC812967E7FC812967E7FC825
:1019B30012967E7F121279F57BFF7A4279BA127FF3
:1019C3000B900396E0FEA3E0FF127ADF7BFF7A3DE4
:1019D30079B5127F0B900396E0FEA3E0FFE4FCFDD4
:1019E300126E1F7BFF7A4279CE127F0B900396E033
:1019F300FEA3E0FF7C137D88125E7BE4FB7A10F983
:101A0300F8125D6790017E125E3E7BFF7A4279D0C9
:101A1300127F0B90017EE0FCA3E0FDA3E0FEA3E0B8
:101A2300FF1273547BFF7A4279D9127F0B7BFF7AC3
:101A33004279DD127F0BE47B06FAF9F890017EE030
:101A4300FCA3E0FDA3E0FEA3E0FF125D6712735465
:101A53007BFF7A4279D9127F0BE47B06FAF9F8907F
:101A6300017EE0FCA3E0FDA3E0FEA3E0FF125D67BF
:101A7300E4125A47E4FBFAF9783F1259AA125A853D
:101A8300900186125E3E7BFF7A4279E6127F0B90CD
:101A93000186E0FCA3E0FDA3E0FEA3E0FF126E1FBE
:101AA3007BFF7A4279F8127F0B900196E0FCA3E06A
:101AB300FDA3E0FEA3E0FF900186E0F8A3E0F9A315
:101AC300E0FAA3E0FBEF2BFFEE3AFEED39FDEC3835
:101AD300FC900196125E3E9001ADE004F07006901A
:101AE30001ACE004F0C39001ADE0940A9001ACE0D6
:101AF300648094805003021952900196E0FCA3E0A5
:101B0300FDA3E0FEA3E0FFE47B0AFAF9F8125D67A8
:101B1300900196125E3E7BFF7A437939127F0B90D8
:101B23000196E0FCA3E0FDA3E0FEA3E0FF126E1F1D
:101B33007BFF7A4279F8127F0B128CB87BFF7A43D2
:101B43007951127F0B9002DE740AF0900388E0FE55
:101B5300A3E0FF7D0A1275D97F02126F5D9001AC7D
:101B6300E4F0A3F07FC812967E7FC812967E7FC8EA
:101B730012967E7FC812967E7FC812967E7FC81209
:101B8300967E7FC812967E7FC812967E7FC8129675
:101B93007E7FC812967E7FC812967E7FC812967E7D
:101BA3007FC812967E7FC812967E7FC812967E7F6C
:101BB300C812967E7FC812967E7FC812967E7FC813
:101BC30012967E7FC812967E7F121279F57BFF7A7A
:101BD3004279BA127F0B900396E0FEA3E0FF127ADC
:101BE300DF7BFF7A3D79B5127F0B900396E0FEA36E
:101BF300E0FFE4FCFD126E1F7BFF7A4279CE127F79
:101C03000B900396E0FEA3E0FF7C137D88125E7BBE
:101C1300E4FB7A10F9F8125D6790017E125E3E7B59
:101C2300FF7A4279D0127F0B90017EE0FCA3E0FDA6
:101C3300A3E0FEA3E0FF1273547BFF7A4279D9122B
:101C43007F0B7BFF7A4279DD127F0BE47B06FAF987
:101C5300F890017EE0FCA3E0FDA3E0FEA3E0FF1209
:101C63005D671273547BFF7A4279D9127F0BE47B51
:101C730006FAF9F890017EE0FCA3E0FDA3E0FEA3E1
:101C8300E0FF125D67E4125A47E4FBFAF9783F126A
:101C930059AA125A8590018A125E3E7BFF7A4279D5
:101CA300E6127F0B90018AE0FCA3E0FDA3E0FEA314
:101CB300E0FF126E1F7BFF7A4279F8127F0B9001CF
:101CC3009AE0FCA3E0FDA3E0FEA3E0FF90018AE01D
:101CD300F8A3E0F9A3E0FAA3E0FBEF2BFFEE3AFE53
:101CE300ED39FDEC38FC90019A125E3E9001ADE0B7
:101CF30004F070069001ACE004F0C39001ADE094F1
:101D03000A9001ACE0648094805003021B67900149
:101D13009AE0FCA3E0FDA3E0FEA3E0FFE47B0AFA64
:101D2300F9F8125D6790019A125E3E7BFF7A437960
:101D330075127F0B90019AE0FCA3E0FDA3E0FEA3E4
:101D4300E0FF126E1F7BFF7A4279F8127F0B128C31
:101D5300B87BFF7A43798D127F0B9002DE740AF011
:101D6300900388E0FEA3E0FF7D0A1275D97F03127A
:101D73006F5D9001ACE4F0A3F07FC812967E7FC83C
:101D830012967E7FC812967E7FC812967E7FC812F7
:101D9300967E7FC812967E7FC812967E7FC8129663
:101DA3007E7FC812967E7FC812967E7FC812967E6B
:101DB3007FC812967E7FC812967E7FC812967E7F5A
:101DC300C812967E7FC812967E7FC812967E7FC801
:101DD30012967E7FC812967E7FC812967E7F12125D
:101DE30079F57BFF7A4279BA127F0B900396E0FE76
:101DF300A3E0FF127ADF7BFF7A3D79B5127F0B9068
:101E03000396E0FEA3E0FFE4FCFD126E1F7BFF7A66
:101E13004279CE127F0B900396E0FEA3E0FF7C1382
:101E23007D88125E7BE4FB7A10F9F8125D679001FE
:101E33007E125E3E7BFF7A4279D0127F0B90017E49
:101E4300E0FCA3E0FDA3E0FEA3E0FF1273547BFFDD
:101E53007A4279D9127F0B7BFF7A4279DD127F0BAD
:101E6300E47B06FAF9F890017EE0FCA3E0FDA3E031
:101E7300FEA3E0FF125D671273547BFF7A4279D9A8
:101E8300127F0BE47B06FAF9F890017EE0FCA3E0F5
:101E9300FDA3E0FEA3E0FF125D67E4125A47E4FBF3
:101EA300FAF9783F1259AA125A8590018E125E3EB2
:101EB3007BFF7A4279E6127F0B90018EE0FCA3E070
:101EC300FDA3E0FEA3E0FF126E1F7BFF7A4279F8C9
:101ED300127F0B90019EE0FCA3E0FDA3E0FEA3E0D4
:101EE300FF90018EE0F8A3E0F9A3E0FAA3E0FBEF93
:101EF3002BFFEE3AFEED39FDEC38FC90019E125EAD
:101F03003E9001ADE004F070069001ACE004F0C334
:101F13009001ADE0940A9001ACE06480948050039A
:101F2300021D7C90019EE0FCA3E0FDA3E0FEA3E084
:101F3300FFE47B0AFAF9F8125D6790019E125E3E98
:101F43007BFF7A4379B1127F0B90019EE0FCA3E003
:101F5300FDA3E0FEA3E0FF126E1F7BFF7A4279F838
:101F6300127F0B128CB8E47F6EFEFDFC900192E0B1
:101F7300F8A3E0F9A3E0FAA3E0FB125CDCE47B64E2
:101F8300FAF9F8125D67900196E0F8A3E0F9A3E08F
:101F9300FAA3E0FBD3125E077BFF400F7A4379C9B4
:101FA300127F0B9001A47401F0800C7A4379DE1246
:101FB3007F0B9001A4E4F0E47F6EFEFDFC900192A0
:101FC300E0F8A3E0F9A3E0FAA3E0FB125CDCE47B16
:101FD30064FAF9F8125D6790019AE0F8A3E0F9A3B7
:101FE300E0FAA3E0FBD3125E077BFF400F7A43794D
:101FF300F3127F0B9001A27401F0800C7A447908EC
:10200300127F0B9001A2E4F0E47F6EFEFDFC9001D1
:1020130092E0F8A3E0F9A3E0FAA3E0FB125CDCE4AE
:102023007B64FAF9F8125D6790019EE0F8A3E0F98A
:10203300A3E0FAA3E0FBD3125E077BFF400F7A44D1
:10204300791D127F0B9001A37401F0800C7A4479FF
:1020530032127F0B9001A3E4F07BFF7A36797B1277
:102063007F0B9001A4E060139001A2E0600DA3E058
:1020730060097BFF7A44794702361D9001A4E07022
:10208300139001A2E0700DA3E070097BFF7A4479FD
:102093006502361D9001A4E060139001A2E0700D6B
:1020A300A3E070097BFF7A44798302361D9001A473
:1020B300E070139001A2E0600DA3E070097BFF7A4A
:1020C3004479A102361D9001A4E070139001A2E0AF
:1020D300700DA3E060097BFF7A4479BF02361D7B54
:1020E300FF7A4479DD02361D9003C5E0644D600339
:1020F30002231E7BFF7A45790C127F0B7F361292E7
:10210300717F201292717F06126F5D7FC812967ED7
:102113007FC812967E7FC812967E7FC812967E7FF6
:10212300C812967E7FC812967E7FC812967E7FC89D
:1021330012967E7FC812967E7FC812967E7FC81243
:10214300967E7FC812967E7FC812967E7FC81296AF
